{
  "contractName": "Foo",
  "abi": [
    {
      "constant": true,
      "inputs": [],
      "name": "bar",
      "outputs": [
        {
          "name": "",
          "type": "string"
        }
      ],
      "payable": false,
      "stateMutability": "pure",
      "type": "function"
    }
  ],
  "bytecode": "0x608060405234801561001057600080fd5b50610114806100206000396000f3fe6080604052348015600f57600080fd5b506004361060285760003560e01c8063febb0f7e14602d575b600080fd5b603360ab565b6040518080602001828103825283818151815260200191508051906020019080838360005b8381101560715780820151818401526020810190506058565b50505050905090810190601f168015609d5780820380516001836020036101000a031916815260200191505b509250505060405180910390f35b60606040518060400160405280600381526020017f626172000000000000000000000000000000000000000000000000000000000081525090509056fea165627a7a723058208936fc2166cdc3056a7e1812126cc7d72f4f3e0c172e06f8e3e9f654e1dc93a30029",
  "source": "pragma solidity ^0.5.0;\n\ncontract Foo {\n\n  function bar() public pure returns (string memory) {\n    return \"bar\";\n  }\n}\n",
  "sourcePath": "/home/nventuro/oz/contract-loader/test/direct-dependency/contracts/Foo.sol",
  "compiler": {
    "name": "solc",
    "version": "0.5.8+commit.23d335f2.Emscripten.clang"
  },
  "schemaVersion": "3.0.16",
  "updatedAt": "2019-09-13T19:42:34.825Z",
  "devdoc": {
    "methods": {}
  },
  "userdoc": {
    "methods": {}
  }
}